:020000040800F2
:1000000000000820A12F0008F12F0008F12F0008A0
:10001000F12F0008F12F0008F12F00080000000068
:10002000000000000000000000000000F12F0008A8
:10003000F12F000800000000F12F0008F12F000848
:10004000F12F0008F12F0008F12F0008F12F000810
:10005000F12F0008F12F0008F12F0008F12F000800
:10006000F12F0008F12F0008F12F0008F12F0008F0
:10007000F12F0008F12F0008F12F0008F12F0008E0
:10008000F12F0008F12F0008F12F0008F12F0008D0
:10009000F12F0008F12F0008F12F0008F12F0008C0
:1000A000F12F0008F12F0008F12F0008F12F0008B0
:1000B000F12F0008F12F0008F12F0008F12F0008A0
:1000C000F12F0008F12F0008F12F0008F12F000890
:1000D000F12F0008F12F0008F12F0008F12F000880
:1000E000F12F0008F12F0008F12F0008F12F000870
:1000F000F12F0008F12F0008F12F0008F12F000860
:10010000F12F0008F12F0008F12F0008F12F00084F
:10011000F12F0008F12F0008F12F0008F12F00083F
:10012000F12F0008F12F0008F12F0008F12F00082F
:10013000F12F0008F12F0008F12F0008F12F00081F
:10014000F12F0008F12F0008F12F0008F12F00080F
:10015000F12F0008F12F0008F12F0008F12F0008FF
:10016000F12F0008F12F0008F12F0008F12F0008EF
:10017000F12F0008F12F0008F12F00080000000007
:10018000F12F0008F12F0008F12F0008F12F0008CF
:10019000F12F0008F12F0008F12F0008F12F0008BF
:1001A000F12F0008F12F0008F12F0008F12F0008AF
:1001B000F12F0008F12F0008F12F0008F12F00089F
:1001C000F12F0008F12F000800000000F12F0008B7
:1001D000F12F0008F12F0008F12F0008F12F00087F
:1001E000F12F0008F12F0008F12F0008F12F00086F
:0801F000F12F0008F12F0008B7
:1002000010B5054C237833B9044B13B10448AFF350
:1002100000800123237010BD980002200000000020
:10022000C058000808B5034B1BB103490348AFF39E
:10023000008008BD000000009C000220C05800089B
:1002400080B400AF154A154BD3F8883043F47003DF
:10025000C2F88830124A124B1B6843F00103136046
:100260000F4B00229A600E490D4B1A680D4B13403C
:100270000B600B4B0C4A5A60094A094B1B6823F46C
:1002800080231360064B0022DA60044B4FF00062BB
:100290009A6000BFBD465DF8047B704700ED00E04A
:1002A00000380240FFFFF6FE1030002480B487B013
:1002B00000AF00233B6100237B610223FB6000232E
:1002C000BB6002237B60314B9B6803F00C033B61F6
:1002D0003B69042B07D0082B09D0002B3DD12C4BB8
:1002E0002C4A1A603DE02A4B2B4A1A6039E0274B12
:1002F0005B689B0D03F00103BB60244B5B6803F05C
:100300003F037B60BB68002B0CD0234A7B68B2FBA9
:10031000F3F31E4A52689209C2F3080202FB03F388
:100320007B610BE01B4A7B68B2FBF3F3174A526810
:100330009209C2F3080202FB03F37B61134B5B6873
:100340001B0C03F0030301335B00FB607A69FB685D
:10035000B2FBF3F30E4A136003E00D4B0D4A1A6033
:1003600000BF0A4B9B681B0903F00F030B4AD35CC9
:100370003B61074B1A683B6922FA03F3044A136096
:1003800000BF1C37BD465DF8047B70470038024053
:10039000040002200024F40040787D01E0580008A9
:1003A00080B483B000AF0346FB71FA7913461B019A
:1003B00013445B00034A134418460C37BD465DF8EE
:1003C000047B7047F858000880B483B000AF034640
:1003D000FB71FB792F2B0AD9FB79392B07D8FB79D5
:1003E000303B322202FB03F3044A134400E00023B3
:1003F00018460C37BD465DF8047B7047F87A000854
:1004000080B483B000AF0346FB71FB792F2B0CD96E
:10041000FB79392B09D8FB79A3F1300213465B0134
:1004200013445B00044A134400E0002318460C37D1
:10043000BD465DF8047B7047EC7C000880B483B057
:1004400000AF0346FB71FA7913469B0013445B002F
:10045000034A134418460C37BD465DF8047B7047C9
:10046000807F000880B582B000AF03460A46FB716A
:100470001346BB71FB79054A52F82330BA7910460E
:100480009847034618460837BD4680BD8089000856
:1004900080B483B000AF78607B681B7818460C3757
:1004A000BD465DF8047B704780B483B000AF7860D0
:1004B0007B6801337B607B681B7818460C37BD4630
:1004C0005DF8047B704700BF98B500AF984A984B21
:1004D0001B6843F480731360954A954B1B6823F0A7
:1004E0000F031360924A924B1B6843F0070313609B
:1004F000904B00221A608F4B00229A608D4A8D4BE0
:100500001B6843F4802313608A4A8A4B1B6843F4B8
:100510008033136000BF874B1B6803F40033002B4C
:10052000F9D0844B00225A60824B43F204625A6035
:10053000804A804B5B6843F4800353607D4A7D4B67
:100540009B6893607B4A7B4B9B6843F4A05393600A
:10055000784A784B9B6843F400439360754A754B27
:100560001B6843F08073136000BF724B1B6803F07D
:100570000073002BF9D06F4A6E4B9B6823F0030386
:1005800093606C4A6B4B9B6843F00203936000BF1F
:10059000684B9B6803F00C03082BF9D1654B5B6833
:1005A000DBB203F03F03DAB2634B1A70614B5B6856
:1005B0009B099BB2C3F308039AB25F4B5A805D4B11
:1005C0005B681B0C03F003030133DBB25B00DAB2A0
:1005D000594B5A70574B9B681B0903F00F03002BB4
:1005E00003D1554B01221A711AE0524B9B681B092B
:1005F00003F007030133184602F08CF903460C465A
:1006000044EC113B9FED480B04F0B0F854EC103B68
:100610001846214602F0A4FC0346DAB2464B1A7192
:10062000444B9B689B0A03F00303002B03D1424B0E
:1006300001229A711AE03F4B9B689B0A03F0030367
:100640000133184602F066F903460C4644EC113BB0
:100650009FED350B04F08AF854EC103B1846214608
:1006600002F07EFC0346DAB2334B9A71314B9B6841
:100670005B0B03F00303002B03D12F4B02225A71B3
:100680001AE02C4B9B685B0B03F003030133184605
:1006900002F040F903460C4644EC113B9FED220B5F
:1006A00004F064F854EC103B1846214602F058FC64
:1006B0000346DAB2204B5A71204B1B681E4A12784F
:1006C000B3FBF2F31C4A528802FB03F31A4A527836
:1006D000B3FBF2F3184A1279B3FBF2F3164A9360B4
:1006E000154B9B68144A9279B3FBF2F3124AD3601C
:1006F000114B9B68104A5279B3FBF2F30E4A5361D7
:100700000D4BDB685B000C4A13610B4B5B695B00B4
:10071000094A9361084B9B68084A1360074B1B68A2
:10072000054AD36100BF98BD0000000000000040F2
:10073000003C024000380240C40002202C0002208D
:1007400080B400AF0A4A0A4BDB6843F08073D36081
:10075000084B094AC3F8B02F064B00225A60054BDC
:1007600000221A6000BFBD465DF8047B704700BFE1
:10077000F0ED00E0001000E055CEACC590B587B0BC
:1007800004AF0446084611461A462346FB8003463A
:10079000BB800B467B8013463B80FB88043B98B2B2
:1007A000BB88103B99B2334BDA69012302934FF6B1
:1007B000E07301933B8B00931346012201F092F802
:1007C000FB88083398B2BB88173B99B27A8801231B
:1007D00002934FF6E07301933B8B00931346002284
:1007E00001F0F9F8FB881C3398B2BB88173B99B22B
:1007F000012302934FF6E07301933B8B00931E4B52
:10080000002201F06FF8BB880F3B99B2F8880123F2
:1008100002934FF6E07301933B8B0093174B00223A
:1008200001F060F8FB88083398B2BB880F3B99B29F
:100830003A88012302934FF6E07301933B8B0093B8
:100840001346002201F0C7F8FB881C3398B2BB881E
:100850000F3B99B2012302934FF6E07301933B8B58
:100860000093074B002201F03DF800BF0C37BD4656
:1008700090BD00BF08000220B0890008B4890008BC
:10088000B889000890B58BB004AF044608461146FD
:100890001A462346FB710346BB800B467B801346FA
:1008A0003B80BB88EF2B01D8F023BB807B88B3F55E
:1008B000707F02D94FF470737B8047F6EF3300935B
:1008C000D72340F23B121921082000F055FDFB7997
:1008D0009BB2073B99B2012302934FF6E073019359
:1008E0004FF478730093184B0122002000F0FAFFB8
:1008F0007A88BB88D31A154A82FB03125211DB1780
:10090000D31A40F2331292FBF3F3FB82FB8A3B755E
:10091000FB8A0833FB8200237B751CE0F88A47F6CC
:10092000EF3300930523D722192100F0A6FE3B7D6B
:100930009AB2FB8A1344FB82FB8AB3F59B7F07D3F1
:100940000023FB8214E000BFBC8900081F85EB5127
:100950007B7D01337B757A7D7988BB88CB1AA5496D
:1009600081FB03014911DB17CB1A013B9A42D5DD0C
:10097000012302934FF6E07301934FF478730093D1
:100980009D4B01220521052000F0ACFF01230293BD
:100990004FF6E073019340F2EF330093974B01223F
:1009A0000521502000F09EFF012302934FF6E073D3
:1009B000019340F26F230093914B012205218C207B
:1009C00000F090FFC823FB740323BB74FB7C98B238
:1009D000BB7C99B28B4B9A69012302934FF6E0736B
:1009E000019347F6EF3300931346012200F07AFF9C
:1009F000FB7C9BB2143398B2BB7C9BB2023399B29E
:100A0000012302934FF6E073019347F6EF3300930F
:100A1000D323002200F0DFFFFB7C9BB2273398B288
:100A2000BB7C9BB2023399B2012302934FF6E07371
:100A3000019347F6EF330093734B002200F052FF0F
:100A4000FB7C9BB2143398B2BB7C9BB20C3399B243
:100A5000012302934FF6E073019347F6EF330093BF
:100A60006A4B002200F03EFFFB7C9BB21B3398B226
:100A7000BB7C9BB20C3399B2012302934FF6E07317
:100A8000019347F6EF3300935023002200F0A3FFB9
:100A9000FB7C9BB2283398B2BB7C9BB20C3399B2DF
:100AA000012302934FF6E073019347F6EF3300936F
:100AB000574B002200F016FF524B1A680123029395
:100AC0004FF6E073019347F6EF330093134601228C
:100AD00005214FF4967000F005FF4A4B1A69012377
:100AE00002934FF4787301934FF6E073009313462B
:100AF0000122052140F21D1000F0F4FEBA88012306
:100B000002934FF6E073019340F2FF730093134694
:100B10000122DC21072000F05EFF012302934FF643
:100B2000E073019340F2FF730093374B0122DC2105
:100B3000222000F0D7FE7A88012302934FF6E0735B
:100B4000019340F2FF73009313460122DC214FF41E
:100B5000827000F040FF012302934FF6E07301938F
:100B600040F2FF730093284B0122DC2140F21F105A
:100B700000F0B8FE7A88BB88D31A9AB20123029398
:100B80004FF6E073019340F2FF7300931346012286
:100B9000DC21542000F01FFF012302934FF6E07385
:100BA000019340F2FF730093174B0122DC216F2069
:100BB00000F098FE7A88BB88D31A3A8802FB03F3C8
:100BC000144A82FB0312D211DB17D31AFB60FB68B5
:100BD0009AB2BB8813449AB23C8D398D38884FF64F
:100BE000E07300932346FFF7C9FD00BF1C37BD46E5
:100BF00090BD00BF1F85EB51C0890008C88900085F
:100C0000D089000808000220B0890008B4890008D3
:100C1000B8890008676666660EB480B5C9B004AFCF
:100C20000246FB1D1A704FF6FF73A7F80E31FB1D2D
:100C30001B78032B21D801A252F823F04D0C000899
:100C4000570C0008610C00086B0C00084FF4FC63A3
:100C5000A7F80E3111E04FF62053A7F80E310CE043
:100C60004FF47843A7F80E3107E02B4B00221A808F
:100C70004FF47843A7F80E3100BF07F5907207F1E3
:100C800008031A6007F1080307F10C001B68D7F886
:100C90001C214FF4807102F029FA1F4B1B881A4661
:100CA000920013445B0099B207F10C0201230293F6
:100CB0004FF6FF730193B7F80E31009313460022ED
:100CC000002000F00FFE07F10C031946134802F054
:100CD000C9F9FB1D1B78002B03D04CF2503001F0FA
:100CE00065FC0D4B1B8801339AB20B4B1A800A4BE3
:100CF0001B88182B08D9084B00221A804CF2503060
:100D000001F054FC00F066FA00BF07F58A77BD4693
:100D1000BDE8804003B07047B4000220D8890008C5
:100D200080B582B000AF0346FB80002000F06CFA73
:100D3000FB881A4608490320FFF76EFF074800F0BA
:100D40007FFA074801F032FC064B074ADA6000BF21
:100D50000837BD4680BD00BFDC890008EC000220DA
:100D6000003B580800ED00E00400FA0580B582B0B1
:100D700000AF0346FB710D4A0C4B9B6943F0807337
:100D800093610A4A094B9B6943F000739361FB79B5
:100D90009BB2184601F0EEFB044A044B9B6943F4F6
:100DA0000073936100BF0837BD4680BD0008024054
:100DB00080B582B000AF0346FB710D4A0C4B9B69B6
:100DC00043F4807393610A4A094B9B6943F00073B3
:100DD0009361FB799BB2184601F0CCFB044A044BAB
:100DE0009B6943F40073936100BF0837BD4680BD23
:100DF0000008024080B582B000AF0346FB71FB796A
:100E000003F00303DAB2224B1A70214B1B78032B39
:100E100032D801A252F823F0290E00083D0E000836
:100E2000510E0008650E00084823FB71194BF02293
:100E30001A80194B4FF4A0721A801DE02823FB7111
:100E4000144B4FF4A0721A80134BF0221A8013E057
:100E50008823FB710F4BF0221A800F4B4FF4A072C6
:100E60001A8009E0E823FB710A4B4FF4A0721A8044
:100E7000094BF0221A8000BF3620FFF777FFFB797D
:100E80001846FFF795FF00BF0837BD4680BD00BF7D
:100E9000B6000220280002202A00022080B500AF00
:100EA0000120FFF763FF834801F080FBCB20FFF7B1
:100EB0005DFF3920FFF77CFF2C20FFF779FF002032
:100EC000FFF776FF3420FFF773FF0220FFF770FF74
:100ED000CF20FFF74BFF0020FFF76AFFC120FFF78D
:100EE00067FF3020FFF764FFE820FFF73FFF852012
:100EF000FFF75EFF0020FFF75BFF7820FFF758FF4A
:100F0000EA20FFF733FF0020FFF752FF0020FFF732
:100F10004FFFED20FFF72AFF6420FFF749FF032072
:100F2000FFF746FF1220FFF743FF8120FFF740FF46
:100F3000F720FFF71BFF2020FFF73AFFC020FFF745
:100F400015FF2320FFF734FFC120FFF70FFF10200C
:100F5000FFF72EFFC520FFF709FF3E20FFF728FF10
:100F60002820FFF725FFC720FFF700FF8620FFF7A7
:100F70001FFF3620FFF7FAFE4820FFF719FF3A203F
:100F8000FFF7F4FE5520FFF713FFB120FFF7EEFE49
:100F90000020FFF70DFF1820FFF70AFFB620FFF72C
:100FA000E5FE0820FFF704FF8220FFF701FF27205E
:100FB000FFF7FEFEF220FFF7D9FE0020FFF7F8FE54
:100FC0002620FFF7D3FE0120FFF7F2FEE020FFF717
:100FD000CDFE0F20FFF7ECFE3120FFF7E9FE2B20BE
:100FE000FFF7E6FE0C20FFF7E3FE0E20FFF7E0FE22
:100FF0000820FFF7DDFE4E20FFF7DAFEF120FFF7B5
:10100000D7FE3720FFF7D4FE0720FFF7D1FE1020D0
:10101000FFF7CEFE0320FFF7CBFE0E20FFF7C8FE42
:101020000920FFF7C5FE0020FFF7C2FEE120FFF711
:101030009DFE0020FFF7BCFE0E20FFF7B9FE142036
:10104000FFF7B6FE0320FFF7B3FE1120FFF7B0FE57
:101050000720FFF7ADFE3120FFF7AAFEC120FFF702
:10106000A7FE4820FFF7A4FE0820FFF7A1FE0F20EF
:10107000FFF79EFE0C20FFF79BFE3120FFF798FE46
:101080003620FFF795FE0F20FFF792FE1120FFF7A5
:101090006DFE084801F08AFA2920FFF767FE2C2030
:1010A000FFF764FE034801F081FA0320FFF7A2FE78
:1010B00000BF80BDA086010080B582B000AF0346AE
:1010C0000A46FB801346BB802A20FFF74FFEFB88B1
:1010D0001B0A9BB2DBB21846FFF76AFEFB88DBB245
:1010E0001846FFF765FEBB881B0A9BB2DBB21846A9
:1010F000FFF75EFEBB88DBB21846FFF759FE00BF64
:101100000837BD4680BD80B582B000AF03460A46B1
:10111000FB801346BB802B20FFF728FEFB881B0AB1
:101120009BB2DBB21846FFF743FEFB88DBB21846E2
:10113000FFF73EFEBB881B0A9BB2DBB21846FFF7E7
:1011400037FEBB88DBB21846FFF732FE00BF083718
:10115000BD4680BD90B583B000AF04460846114639
:101160001A462346FB800346BB800B467B80134612
:101170003B807A88FB8811461846FFF79DFF3A8826
:10118000BB8811461846FFF7BEFF2C20FFF7EEFD87
:1011900000BF0C37BD4690BD80B483B000AF03469E
:1011A000FB800B46BB8013467B80BB88074A1288B6
:1011B00002FB03F2FB88134405497A8821F81320C7
:1011C00000BF0C37BD465DF8047B70472800022045
:1011D000EC00022080B483B000AF00237B6007E006
:1011E000084A7B68002122F813107B6801337B607A
:1011F0007B68B3F5963FF3D300BF0C37BD465DF86F
:10120000047B7047EC00022080B485B000AF034639
:10121000FB800023FB6007E00849FB68FA8821F89F
:101220001320FB680133FB60FB68B3F5963FF3D3F3
:1012300000BF1437BD465DF8047B7047EC00022008
:1012400080B582B000AF78601E4B1A881E4B1B8899
:1012500000210020FFF77EFF1C4A1C4B5B6843F413
:10126000706353601A4A1A4B1B6843F4806313601F
:10127000184B00221A60184A174B9B6943F480737D
:101280009361154A144B9B6943F0007393614FF4CB
:101290009631786801F082F80F4A0F4B9B6943F44E
:1012A00000739361094A094B5B6823F40063536040
:1012B000064A064B5B6843F4E063536000BF08379F
:1012C000BD4680BD280002202A00022000340140D3
:1012D00028640240E80002200008024090B585B072
:1012E00000AF0446084611461A462346FB800346D3
:1012F000BB800B467B8013463B800023FB600CE0E9
:10130000FB689AB2BB88134499B23A88FB881846A6
:10131000FFF742FFFB680133FB607A88FB689A4263
:10132000EEDC00BF1437BD4690BD90B585B000AF70
:101330000446084611461A462346FB800346BB80F6
:101340000B467B8013463B800023FB600CE0FB6870
:101350009AB2FB8813449BB23A88B9881846FFF7C3
:101360001BFFFB680133FB607A88FB689A42EEDC66
:1013700000BF1437BD4690BD90B585B000AF0446A0
:10138000084611461A462346FB800346BB800B469F
:101390007B8013463B807A88FB88D31AFB813A888E
:1013A000BB88D31ABB813B8CBA89B988F888FFF710
:1013B00095FF3B8CFA89B988F888FFF7B6FFFA8861
:1013C000FB89134498B23B8CBA89B988FFF786FF32
:1013D000BA88BB89134499B23B8CFA89F888FFF725
:1013E000A4FF00BF1437BD4690BD2DE9F04387B080
:1013F00000AF0646084611461A463346FB800346B0
:10140000BB800B467B8013463B80B7F90220B7F9BF
:101410000630D31A184601F08DFA02460B46904664
:1014200023F000494046494601F09AFD0346BB823D
:10143000B7F90020B7F90430D31A184601F07AFA48
:1014400002460B46144623F000452046294601F08B
:1014500087FD03467B82B7F90620B7F902309A422E
:1014600001DA012301E04FF6FF733B82B7F9042054
:10147000B7F900309A4201DA012301E04FF6FF7319
:10148000FB81BA8A7B8AD31AFB827B8839883A8FA0
:101490001846FFF781FE26E0FB88B9883A8F184688
:1014A000FFF77AFEFB8A5B009BB2BB81B7F90C2089
:1014B0007B8A5B429A4208DDFA8A7B8AD31AFB82D6
:1014C000FA883B8A13449BB2FB80B7F90C20BB8A95
:1014D0009A4208DAFA8ABB8A1344FB82BA88FB89EB
:1014E00013449BB2BB80B7F90620B7F902309A4289
:1014F000D2D1B7F90420B7F900309A42CCD100BF5D
:101500001C37BD46BDE8F08390B587B000AF0446F8
:10151000084611461A462346FB800346BB800B460D
:101520007B8013463B807B885B427B6100233B6171
:101530007B88C3F101035B00FB607B699BB2FA8887
:10154000D31A98B23B699AB2BB8813449BB23A88CB
:101550001946FFF721FE7B699AB2FB88134498B2C3
:101560003B699AB2BB8813449BB23A881946FFF78D
:1015700013FE7B699AB2FB88134498B23B699BB215
:10158000BA88D31A9BB23A881946FFF705FE7B69E1
:101590009BB2FA88D31A98B23B699BB2BA88D31A25
:1015A0009BB23A881946FFF7F7FDFB68BB60BA6843
:1015B0003B699A4213DC3B6901333B613B695B0049
:1015C0000133FA681344FB607B695A423B699A42D3
:1015D00005D1BA687B699A4201DC0023BB60BA6816
:1015E0007B699A4208DD7B6901337B617B695B0023
:1015F0000133FA681344FB607B69002B9DDD00BF5B
:101600001C37BD4690BD90B585B002AF0446084674
:1016100011461A462346FB800346BB800B467B805F
:1016200013463B80B7F90600B7F90410B7F902205A
:10163000B7F900403B8C00932346FFF7D6FEB7F97D
:101640000600B7F90410B7F91820B7F91C403B8C15
:1016500000932346FFF7C9FEB7F90200B7F900105F
:10166000B7F91820B7F91C403B8C00932346FFF7CD
:10167000BCFE00BF0C37BD4690BD90B585B000AF35
:101680000446084611461A462346FB800346BB80A3
:101690000B467B8013463B80BB88FB810BE03B8C79
:1016A0003A88F989F888FFF719FEFA893B881344CC
:1016B0009BB20A33FB81FA897B889A42EFD300BF41
:1016C0001437BD4690BD90B585B000AF04460846BE
:1016D00011461A462346FB800346BB800B467B809F
:1016E00013463B80FB88FB810BE03B8C3A88B98832
:1016F000F889FFF71AFEFA893B8813449BB20A3334
:10170000FB81FA897B889A42EFD300BF1437BD462C
:1017100090BD90B587B000AF0446084611461A4602
:101720002346FB800346BB800B46FB701346BB7011
:10173000BA78FB7811461846FEF794FE386138698E
:10174000FEF7A6FE0346FB733869FEF7ADFE0346BF
:10175000BB733B6902333B61FB78002B43D1002311
:10176000FB753BE00023BB7531E0FB7D3A69134418
:101770001B781A46BB7DC3F1070342FA03F303F05B
:101780000103002B0ED0BB7D9AB2FB88134498B2A4
:10179000FB7D9AB2BB8813449BB23A8D1946FFF782
:1017A000FBFC11E097F83030002B0DD1BB7D9AB2D5
:1017B000FB88134498B2FB7D9AB2BB8813449BB25A
:1017C000BA8D1946FFF7E8FCBB7D0133BB75BA7DC6
:1017D000FB7B9A42C9D3FB7D0133FB75FA7DBB7B52
:1017E0009A42BFD379E000237B7572E000233B75FA
:1017F00068E03B7D072B31D87B7D5B001A463B6957
:1018000013441B781A463B7DC3F1070342FA03F3E6
:1018100003F00103002B0ED03B7D9AB2FB881344EA
:1018200098B27B7D9AB2BB8813449BB23A8D19461D
:10183000FFF7B2FC43E097F83030002B3FD13B7DFF
:101840009AB2FB88134498B27B7D9AB2BB8813444A
:101850009BB2BA8D1946FFF79FFC30E07B7D5B00A1
:1018600001333A6913441B781A463B7DC3F10F03D9
:1018700042FA03F303F00103002B0ED03B7D9AB232
:10188000FB88134498B27B7D9AB2BB8813449BB209
:101890003A8D1946FFF780FC11E097F83030002BA5
:1018A0000DD13B7D9AB2FB88134498B27B7D9AB2EE
:1018B000BB8813449BB2BA8D1946FFF76DFC3B7D84
:1018C00001333B753A7DFB7B9A4292D37B7D01339A
:1018D0007B757A7DBB7B9A4288D3FB7B18461C378D
:1018E000BD4690BD90B58DB004AF7B600346FB81D3
:1018F0000B46BB811346FB727B681A78FB7A114654
:101900001846FEF7AFFDB8610023FB77FB89FB8229
:10191000B869FEF7C9FD03467B7554E07B681B7808
:101920000A2B06D00D2B0FD0002B10D10123FB77F3
:1019300046E0B869FEF7B8FD03467B757B7D9AB239
:10194000BB891344BB813BE0FB8AFB8138E097F8FD
:101950003830002B13D07B681C78FA7AB989F88963
:1019600001230293002301933B8E00932346FFF74C
:10197000D0FE03469AB2FB891344FB8112E07B68D8
:101980001C78FA7AB989F88900230293BB8E0193F7
:101990003B8E00932346FFF7BCFE03469AB2FB89B9
:1019A0001344FB817B681A78FB7A11461846FEF7D0
:1019B00059FD03461846FEF777FD03467B7500BFC9
:1019C0007B6801337B60FB7F002BA7D0FB89184627
:1019D0002437BD4690BD90B589B004AF0446084693
:1019E00011461A462346FB800346BB800B46FB701C
:1019F00013463B803B88092B78D93B88632B75D8ED
:101A000038883A889D4BA3FB0213D9080B469B00EC
:101A10000B445B00D31A9BB2C31A994A82FB031290
:101A20009210DB17D31AFB733A88944BA3FB021373
:101A3000D9080B469B000B445B00D31A9BB2BB73C7
:101A400097F82830002B28D0FB7B3033DCB2FA78B3
:101A5000B988F88801230293002301933B8C0093FB
:101A60002346FFF756FE03469AB2FB881344FB80D9
:101A7000BB7B3033DCB2FA78B988F8880123029353
:101A8000002301933B8C00932346FFF742FE03465D
:101A90009AB2FB881344FB804AE2FB7B3033DCB212
:101AA000FA78B988F88800230293BB8C01933B8CA9
:101AB00000932346FFF72DFE03469AB2FB8813449A
:101AC000FB80BB7B3033DCB2FA78B988F88800231E
:101AD0000293BB8C01933B8C00932346FFF719FEC6
:101AE00003469AB2FB881344FB8021E23B88632BB8
:101AF00040F2CA803B88B3F57A7F80F0C5803A888F
:101B00003B886049A1FB03014909642000FB01F106
:101B10005B1A9BB2D31A5B4A82FB03125211DB178A
:101B2000D31A7B7338883A88544BA3FB0213D90825
:101B30000B469B000B445B00D31A9BB2C21A398838
:101B40003B885048A0FB03404009642404FB00F09C
:101B50001B1A9BB2CB1AD31A494A82FB031292106A
:101B6000DB17D31AFB733A88444BA3FB0213D90843
:101B70000B469B000B445B00D31A9BB2BB7397F8D8
:101B80002830002B3CD07B7B3033DCB2FA78B9882C
:101B9000F88801230293002301933B8C0093234692
:101BA000FFF7B7FD03469AB2FB881344FB80FB7B2B
:101BB0003033DCB2FA78B988F88801230293002325
:101BC00001933B8C00932346FFF7A3FD03469AB293
:101BD000FB881344FB80BB7B3033DCB2FA78B988D6
:101BE000F88801230293002301933B8C0093234642
:101BF000FFF78FFD03469AB2FB881344FB8097E101
:101C00007B7B3033DCB2FA78B988F8880023029302
:101C1000BB8C01933B8C00932346FFF77AFD034670
:101C20009AB2FB881344FB80FB7B3033DCB2FA783A
:101C3000B988F88800230293BB8C01933B8C0093F6
:101C40002346FFF766FD03469AB2FB881344FB80E8
:101C5000BB7B3033DCB2FA78B988F8880023029372
:101C6000BB8C01933B8C00932346FFF752FD034648
:101C70009AB2FB881344FB805AE100BFCDCCCCCC98
:101C8000676666661F85EB513B88B3F57A7FC0F0C7
:101C90000E813B8842F20F72934200F208813A882B
:101CA0003B88A649A1FB030189094FF47A7000FB28
:101CB00001F15B1A9BB2D31AA04A82FB0312921164
:101CC000DB17D31A3B733A883B889D49A1FB03017C
:101CD0004909642000FB01F15B1A9BB2D21A3988D2
:101CE0003B889648A0FB034080094FF47A7404FBBC
:101CF00000F01B1A9BB2CB1AD31A914A82FB031233
:101D00005211DB17D31A7B7338883A888D4BA3FBAB
:101D10000213D9080B469B000B445B00D31A9BB2FD
:101D2000C21A39883B888648A0FB034040096424D6
:101D300004FB00F01B1A9BB2CB1AD31A824A82FB17
:101D400003129210DB17D31AFB733A887D4BA3FB67
:101D50000213D9080B469B000B445B00D31A9BB2BD
:101D6000BB7397F82830002B50D03B7B3033DCB26C
:101D7000FA78B988F88801230293002301933B8CF9
:101D800000932346FFF7C5FC03469AB2FB88134431
:101D9000FB807B7B3033DCB2FA78B988F88801238A
:101DA0000293002301933B8C00932346FFF7B1FC81
:101DB00003469AB2FB881344FB80FB7B3033DCB2D2
:101DC000FA78B988F88801230293002301933B8CA9
:101DD00000932346FFF79DFC03469AB2FB88134409
:101DE000FB80BB7B3033DCB2FA78B988F8880123FA
:101DF0000293002301933B8C00932346FFF789FC59
:101E000003469AB2FB881344FB8091E03B7B30335E
:101E1000DCB2FA78B988F88800230293BB8C01936E
:101E20003B8C00932346FFF774FC03469AB2FB8871
:101E30001344FB807B7B3033DCB2FA78B988F888B6
:101E400000230293BB8C01933B8C00932346FFF746
:101E500060FC03469AB2FB881344FB80FB7B303363
:101E6000DCB2FA78B988F88800230293BB8C01931E
:101E70003B8C00932346FFF74CFC03469AB2FB8849
:101E80001344FB80BB7B3033DCB2FA78B988F88826
:101E900000230293BB8C01933B8C00932346FFF7F6
:101EA00038FC03469AB2FB881344FB8040E03B8831
:101EB00042F20F7293420CD9FA78B988F88801235C
:101EC0000293BB8C01933B8C0093204BFFF70AFDE0
:101ED0002EE097F82830002B15D03B88DBB230334A
:101EE000DCB2FA78B988F8880123029300230193C1
:101EF0003B8C00932346FFF70CFC03469AB2FB8809
:101F00001344FB8014E03B88DBB23033DCB2FA7858
:101F1000B988F88800230293BB8C01933B8C009313
:101F20002346FFF7F6FB03469AB2FB881344FB8077
:101F3000002318461437BD4690BD00BFD34D621034
:101F40001F85EB51CDCCCCCC67666666EC8900086A
:101F500090B587B004AFFEF7F3FB304A2F4B1B68F8
:101F600043F001031360FEF7AFFA00F0F5F800F05C
:101F70000BF900F0C1F9FEF791FF284A274B1B68C7
:101F800023F001031360264B7B60264B3B601F2030
:101F9000FFF73AF9214B5B681A4623490020FEF708
:101FA0003BFE3B681A683B68043319683B6808339A
:101FB0001B6800930B461D490020FEF72DFE1C4BAD
:101FC00007221C490120FEF727FE7B681B889BB275
:101FD0001A4619490120FEF71FFE18490020FEF796
:101FE0001BFE174BD869164BDC68154B1B69144A4E
:101FF000526913498969029101920093234602466E
:1020000010490020FEF708FE0F48FFF719F90F48A6
:1020100000F0CCFA00F01CF8FCE700BF001000E074
:1020200042F4F01F20F4F01FF48900080C8A000825
:1020300001000500288A0008508A0008688A000804
:10204000C4000220848A0008EC00022080F0FA021A
:1020500090B589B002AFBE23FB820123FB724FF41F
:10206000FC633B8100237B82C8233B82FB8AFB808D
:102070000923BB8164E0BB8A0133BB82BB89B3F512
:102080009C7F18D3FB88D8B27A8A3B8A0093134688
:102090004FF496624FF49671FEF7F4FB0923BB816F
:1020A0000023BB8200237B82C8233B822848FFF7A2
:1020B000C7F8FFF78FF8274B9B681B0EDB08BB8028
:1020C000FB7A9AB2BB8913447B80FA88BB88D31A07
:1020D000FB81BA8AFB7A982191FBF3F39A4201D1F2
:1020E0003C23FB81BA8AFB7AAB2191FBF3F39A4242
:1020F00001D15A23FB81BA8AFB7AAC2191FBF3F31D
:102100009A4201D14623FB81FA893B8A9A4203D243
:102110007B887B82FB893B82B7F90C00B7F91610EC
:10212000B7F90220B7F90E403B8900932346FFF729
:102130005CF9FB89FB82FB7A9AB2BB891344BB81B1
:10214000BB89B3F59E7F96D300BF1C37BD4690BDBB
:10215000EC0002200008065080B400AF084A084B8B
:102160005B6B43F040035363064A064B1B6843F026
:102170000403136000BFBD465DF8047B704700BFD9
:10218000003802400008065080B500AF564A564B52
:102190001B6B43F004031363534A534B1B6B43F015
:1021A00010031363514A514B1B6843F400531360EF
:1021B0004E4A4E4B9B6843F4405393604B4A4B4B03
:1021C0001B6A43F0A0631362484A484B1B6843F004
:1021D00020031360454A454B9B6843F030039360EE
:1021E000424A424B1B6A43F4A0631362404A404B8D
:1021F0001B6843F4803313603D4A3D4B9B6843F4B6
:10220000403393603A4A3A4B9B6943F4807393613D
:10221000374A374B1B6843F480031360344A344B0E
:102220009B6843F440039360314A314B9B6943F40C
:10223000006393612E4A2E4B1B6843F48023136086
:102240002B4A2B4B9B6843F440239360284A284B2E
:102250009B6943F000739361234A234B5B6C43F407
:1022600000535364234B00221A60224B00225A6011
:10227000204A204B1B6843F0040313601D4A1D4B8A
:102280001B6843F4004313601A4A1A4B1B6843F45B
:1022900080431360174A174B5B6823F40063536055
:1022A000144A144B5B6843F4E0635360114A114BCA
:1022B0001B6843F4007313600E4A0E4B1B6843F413
:1022C000807313600B4A0B4B5B6843F0020353604F
:1022D000084A084B1B6843F0400313604FF4FA7040
:1022E00000F064F900BF80BD0038024000100240D9
:1022F000000802400034014080B400AF244A244B5F
:102300001B6B43F480031363224A224B1B6843F088
:10231000006313601F4A1F4B1B6823F00103136007
:102320001C4A1C4B1B6823F480631360194A194B29
:102330001B6823F400731360164A164B1B6843F4A2
:1023400000531360134A134B1B6843F4006313607C
:10235000104A104B1B6823F4807313600D4A0D4B19
:102360001B6843F0400313600A4A0A4B1B6843F49E
:1023700040331360074A074B1B6843F01003136098
:10238000044B054A9A6000BFBD465DF8047B704768
:1023900000380240286402400C34014080B485B00B
:1023A00000AF78603960334B1B68002B03D07B682B
:1023B000304A136005E07A682F4B13441A462D4BC0
:1023C0001A603B68B3F5803F03D34FF6FF73FB60A1
:1023D00001E03B68FB60294A284B1B6823F001039E
:1023E0001360264B264A9A60244A7B68D360234AAE
:1023F000FB685360214A214B1B6843F001031360C3
:1024000000BF204B1B6803F40063002BF9D01D4A6A
:102410001C4B9B6843F4006393603B684FF6FE726D
:10242000934221D9154A154B1B6823F00103136011
:1024300012493A68FB68D31A4B60104A0D4B1B686F
:10244000D3600E4A0D4B1B6843F00103136000BFBD
:102450000C4B1B6803F40063002BF9D0094A094BAD
:102460009B6843F40063936000BF1437BD465DF87A
:10247000047B7047E8000220FEFF01002864024050
:102480000C3401400064024080B485B000AF786035
:102490003960334B1B68002B03D07B68304A1360D4
:1024A00005E07A682F4B13441A462D4B1A603B689F
:1024B000B3F5803F03D34FF6FF73FB6001E03B6849
:1024C000FB60294A284B1B6823F001031360264B4D
:1024D000264A9A60244A7B68D360234AFB6853608B
:1024E000214A214B1B6843F00103136000BF204BBE
:1024F0001B6803F40063002BF9D01D4A1C4B9B683A
:1025000043F4006393603B68B3F5803F21D3164AE0
:10251000154B1B6823F00103136013493A68FB68ED
:10252000D31A4B60104A0E4B1B68D3600E4A0E4BF9
:102530001B6843F00103136000BF0D4B1B6803F4DD
:102540000063002BF9D00A4A094B9B6843F40063EF
:10255000936000BF1437BD465DF8047B704700BF31
:10256000E8000220FEFF0100286402400C34014014
:102570000064024080B582B000AF0346FB80094B87
:10258000FA88D2B21A7000BF074B9B6803F00203AF
:10259000002BF9D0022000F009F800BF0837BD4633
:1025A00080BD00BF0C3401400034014080B483B0D2
:1025B00000AF786002E07B68013B7B607B68002BAA
:1025C000F9D100BF0C37BD465DF8047B704700BFF2
:1025D000C88B00080000022098000220980002200A
:1025E000F05804200000000000000000000000007F
:1025F00001F0FF01102A2BDB10F0070F08D010F8B4
:10260000013B013A8B422DD010F0070F42B3F6D1B7
:10261000F0B441EA012141EA014122F007047FF0D0
:1026200000070023F0E80256083C85EA010586EA27
:10263000010685FA47F5A3FA87F586FA47F6A5FA63
:1026400087F68EB9EED1F0BC01F0FF0102F007026F
:1026500032B110F8013B013A83EA010313B1F8D11A
:102660000020704701387047002D06BF35460338FB
:10267000073815F0010F07D1013015F4807F02BF34
:10268000013015F4C03F0130F0BC0138704700BF85
:1026900081F0004102E000BF83F0004330B54FEA13
:1026A00041044FEA430594EA050F08BF90EA020F80
:1026B0001FBF54EA000C55EA020C7FEA645C7FEA13
:1026C000655C00F0E2804FEA5454D4EB5555B8BF36
:1026D0006D420CDD2C4480EA020281EA030382EAA7
:1026E000000083EA010180EA020281EA0303362D39
:1026F00088BF30BD11F0004F4FEA01314FF4801C0C
:102700004CEA113102D0404261EB410113F0004F1D
:102710004FEA03334CEA133302D0524263EB4303D4
:1027200094EA050F00F0A780A4F10104D5F1200E72
:102730000DDB02FA0EFC22FA05F2801841F10001CD
:1027400003FA0EF2801843FA05F359410EE0A5F1A1
:1027500020050EF1200E012A03FA0EFC28BF4CF0D2
:10276000020C43FA05F3C01851EBE37101F0004588
:1027700007D54FF0000EDCF1000C7EEB00006EEB95
:102780000101B1F5801F1BD3B1F5001F0CD349081F
:102790005FEA30004FEA3C0C04F101044FEA445276
:1027A00012F5800F80F09A80BCF1004F08BF5FEAFD
:1027B000500C50F1000041EB045141EA050130BDDD
:1027C0005FEA4C0C404141EB010111F4801FA4F180
:1027D0000104E9D191F0000F04BF01460020B1FAD5
:1027E00081F308BF2033A3F10B03B3F120020CDA0D
:1027F0000C3208DD02F1140CC2F10C0201FA0CF0EB
:1028000021FA02F10CE002F11402D8BFC2F1200C4F
:1028100001FA02F120FA0CFCDCBF41EA0C01904005
:10282000E41AA2BF01EB0451294330BD6FEA04044E
:102830001F3C1CDA0C340EDC04F11404C4F1200239
:1028400020FA04F001FA02F340EA030021FA04F34B
:1028500045EA030130BDC4F10C04C4F1200220FAA2
:1028600002F001FA04F340EA0300294630BD21FAE0
:1028700004F0294630BD94F0000F83F4801306BFA6
:1028800081F480110134013D4EE77FEA645C18BF9A
:102890007FEA655C29D094EA050F08BF90EA020F31
:1028A00005D054EA000C04BF1946104630BD91EA29
:1028B000030F1EBF0021002030BD5FEA545C05D12C
:1028C0004000494128BF41F0004130BD14F580046B
:1028D0003CBF01F5801130BD01F0004545F0FE41DF
:1028E00041F470014FF0000030BD7FEA645C1ABF14
:1028F000194610467FEA655C1CBF0B46024650EA4B
:10290000013406BF52EA033591EA030F41F4002176
:1029100030BD00BF90F0000F04BF0021704730B5FC
:102920004FF4806404F132044FF000054FF00001D1
:1029300050E700BF90F0000F04BF0021704730B592
:102940004FF4806404F1320410F0004548BF404267
:102950004FF000013EE700BF42004FEAE2014FEABC
:1029600031014FEA02701FBF12F07F4393F07F4F97
:1029700081F06051704792F0000F14BF93F07F4FC9
:10298000704730B54FF4607401F0004521F000410C
:1029900020E700BF50EA010208BF704730B54FF092
:1029A00000050AE050EA010208BF704730B511F097
:1029B000004502D5404261EB41014FF4806404F1CF
:1029C00032045FEA915C3FF4DCAE4FF003025FEA51
:1029D000DC0C18BF03325FEADC0C18BF033202EBD9
:1029E000DC02C2F1200300FA03FC20FA02F001FA33
:1029F00003FE40EA0E0021FA02F11444C1E600BFD2
:102A000070B54FF0FF0C4CF4E06C1CEA11541DBF84
:102A10001CEA135594EA0C0F95EA0C0F00F0DEF84F
:102A20002C4481EA030621EA4C5123EA4C5350EA34
:102A3000013518BF52EA033541F4801143F4801385
:102A400038D0A0FB02CE4FF00005E1FB02E506F016
:102A50000042E0FB03E54FF00006E1FB03569CF06B
:102A6000000F18BF4EF0010EA4F1FF04B6F5007F71
:102A700064F5407404D25FEA4E0E6D4146EB0606E3
:102A800042EAC62141EA55514FEAC52040EA5E506C
:102A90004FEACE2EB4F1FD0C88BFBCF5E06F1ED816
:102AA000BEF1004F08BF5FEA500E50F1000041EB4D
:102AB000045170BD06F0004646EA010140EA0200FA
:102AC00081EA0301B4EB5C04C2BFD4EB0C0541EA1C
:102AD000045170BD41F480114FF0000E013C00F331
:102AE000AB8014F1360FDEBF002001F0004170BD55
:102AF000C4F10004203C35DA0C341BDC04F114046E
:102B0000C4F1200500FA05F320FA04F001FA05F2F9
:102B100040EA020001F0004221F0004110EBD370C6
:102B200021FA04F642EB06015EEA430E08BF20EAF2
:102B3000D37070BDC4F10C04C4F1200500FA04F395
:102B400020FA05F001FA04F240EA020001F0004127
:102B500010EBD37041F100015EEA430E08BF20EA9A
:102B6000D37070BDC4F1200500FA05F24EEA020EE2
:102B700020FA04F301FA05F243EA020321FA04F011
:102B800001F0004121FA04F220EA020000EBD370C8
:102B90005EEA430E08BF20EAD37070BD94F0000FC8
:102BA0000FD101F00046400041EB010111F4801FFC
:102BB00008BF013CF7D041EA060195F0000F18BFAD
:102BC000704703F00046520043EB030313F4801FE9
:102BD00008BF013DF7D043EA0603704794EA0C0FA3
:102BE0000CEA135518BF95EA0C0F0CD050EA4106B9
:102BF00018BF52EA4306D1D181EA030101F0004136
:102C00004FF0000070BD50EA410606BF104619465D
:102C100052EA430619D094EA0C0F02D150EA013669
:102C200013D195EA0C0F05D152EA03361CBF1046AA
:102C300019460AD181EA030101F0004141F0FE4149
:102C400041F470014FF0000070BD41F0FE4141F4CD
:102C5000780170BD70B54FF0FF0C4CF4E06C1CEACD
:102C600011541DBF1CEA135594EA0C0F95EA0C0F82
:102C700000F0A7F8A4EB050481EA030E52EA03353D
:102C80004FEA013100F088804FEA03334FF080555E
:102C900045EA131343EA12634FEA022245EA11158B
:102CA00045EA10654FEA00260EF000419D4208BF3C
:102CB000964244F1FD0404F5407402D25B084FEAE9
:102CC0003202B61A65EB03055B084FEA32024FF495
:102CD00080104FF4002CB6EB020E75EB030E22BFF2
:102CE000B61A754640EA0C005B084FEA3202B6EBB2
:102CF000020E75EB030E22BFB61A754640EA5C0061
:102D00005B084FEA3202B6EB020E75EB030E22BFF0
:102D1000B61A754640EA9C005B084FEA3202B6EBF1
:102D2000020E75EB030E22BFB61A754640EADC00B0
:102D300055EA060E18D04FEA051545EA16754FEA12
:102D400006164FEAC30343EA52734FEAC2025FEA30
:102D50001C1CC0D111F4801F0BD141EA00014FF0BF
:102D600000004FF0004CB6E711F4801F04BF014390
:102D70000020B4F1FD0C88BFBCF5E06F3FF6AFAEAC
:102D8000B5EB030C04BFB6EB020C5FEA500C50F13C
:102D9000000041EB045170BD0EF0004E4EEA1131BF
:102DA00014EB5C04C2BFD4EB0C0541EA045170BDC6
:102DB00041F480114FF0000E013C90E645EA060E0A
:102DC0008DE60CEA135594EA0C0F08BF95EA0C0F38
:102DD0003FF43BAF94EA0C0F0AD150EA01347FF480
:102DE00034AF95EA0C0F7FF425AF104619462CE757
:102DF00095EA0C0F06D152EA03353FF4FDAE1046BA
:102E0000194622E750EA410618BF52EA43067FF40A
:102E1000C5AE50EA41047FF40DAF52EA43057FF49A
:102E2000EBAE12E74FF0FF3C06E000BF4FF0010CA5
:102E300002E000BF4FF0010C4DF804CD4FEA410C09
:102E40007FEA6C5C4FEA430C18BF7FEA6C5C1BD0D6
:102E500001B050EA410C0CBF52EA430C91EA030F57
:102E600002BF90EA020F0020704710F1000F91EAB4
:102E7000030F58BF994208BF90422CBFD8176FEA82
:102E8000E37040F0010070474FEA410C7FEA6C5C50
:102E900002D150EA013C07D14FEA430C7FEA6C5C57
:102EA000D6D152EA033CD3D05DF8040B704700BF83
:102EB0008446104662468C461946634600E000BFD1
:102EC00001B5FFF7B7FF002848BF10F1000F01BDA3
:102ED0004DF808EDFFF7F4FF0CBF012000205DF86E
:102EE00008FB00BF4DF808EDFFF7EAFF34BF0120F3
:102EF00000205DF808FB00BF4DF808EDFFF7E0FF8C
:102F000094BF012000205DF808FB00BF4DF808EDDC
:102F1000FFF7CEFF94BF012000205DF808FB00BF43
:102F20004DF808EDFFF7C4FF34BF012000205DF825
:102F300008FB00BF4FEA410C7FEA6C5C02D150EA0B
:102F4000013C0AD14FEA430C7FEA6C5C02D152EAA1
:102F5000033C02D14FF0000070474FF00100704772
:102F60004A0011D212F5001211D20DD56FF4787308
:102F7000B3EB62520ED44FEAC12343F0004343EA5D
:102F8000505323FA02F070474FF00000704750EAA8
:102F9000013002D14FF0FF3070474FF00000704712
:102FA000DFF834D0002103E00C4B5B584350043170
:102FB0000B480C4B42189A42F6D30B4A02E000230E
:102FC00042F8043B094B9A42F9D3FDF739F900F076
:102FD00011F8FEF7BDFF704700000820C88B0008FD
:102FE000000002209800022098000220F0580420DF
:102FF000FEE7000070B50D4E0D4CA41BA41000257B
:10300000A54209D10B4E0C4C02F05CFCA41BA41091
:103010000025A54205D170BD56F8253098470135E9
:10302000EEE756F8253098470135F2E7C08B0008E7
:10303000C08B0008C08B0008C48B00080EB417B505
:10304000044618B183690BB900F0A8F806AB059ADD
:10305000A1680193204600F0C7FB03B0BDE8104013
:1030600003B070470FB40A4B13B51C6824B1A369B1
:1030700013B9204600F092F805AB049AA1680193B9
:10308000204600F0B1FB02B0BDE8104004B070472C
:103090003000022030B5141E05469BB0184605DAF4
:1030A0008B232B604FF0FF301BB030BD4FF4027309
:1030B000ADF80C3014BF04F1FF332346029305939F
:1030C0004FF6FF7300910491ADF80E3002461E9B3F
:1030D0006946284600F05CFA431CBCBF8B232B607A
:1030E000002CE1D0009B00221A70DDE707B50093A9
:1030F00013460A46014603480068FFF7CBFF03B0BA
:103100005DF804FB3000022000207047014900F008
:10311000E5B800BFE5400008002310B50446036091
:103120004360836081814366C2810361436183613F
:10313000194608225C3000F0EFF8054B6362054B3E
:10314000A362054BE362054B2462236310BD00BFFD
:10315000753D00089B3D0008D33D0008F73D000881
:103160000020704770B54A1E682555430E4605F18C
:10317000740100F0D9F8044640B1002180E8420013
:103180000C30A06005F1680200F0C6F8204670BD62
:10319000014B1868FFF7BABF448B0008836910B56C
:1031A000044633BB8364C3640365124B124A1B6835
:1031B0008262984204BF0123836100F01FF86060BF
:1031C000204600F01BF8A060204600F017F800220F
:1031D000E06004216068FFF79FFF01220921A068D9
:1031E000FFF79AFF02221221E068FFF795FF012303
:1031F000A36110BD448B00080D310008F8B51C4BCD
:103200001E68B369074613B93046FFF7C7FF483653
:10321000B4687368013B03D5336833B13668F7E7A8
:10322000B4F90C506DB16834F4E704213846FFF767
:1032300099FF30600028F1D10C233B600446204602
:10324000F8BD4FF6FF73E3810123A3816566256016
:10325000A560656025616561A5610822294604F1C4
:103260005C0000F059F86563A563A564E564E6E7D2
:10327000448B00087047704770477047024B034902
:10328000186800F00FB800BF30000220613100085C
:10329000024B0349186800F005B800BF3000022057
:1032A000093100082DE9F041884600F14804002664
:1032B00014B93046BDE8F081A5686768013F01D5C3
:1032C0002468F5E7AB89012B06D9B5F90E30013337
:1032D00002D02846C04706436835EFE72DE9F8439A
:1032E0008046894600F14804002614B93046BDE8FE
:1032F000F883A5686768013F01D52468F5E7AB89C5
:10330000012B07D9B5F90E30013303D029464046C9
:10331000C84706436835EEE702440346934200D1AE
:10332000704703F8011BF9E770B5CD1C25F00305C4
:1033300008350C2D38BF0C25002D064601DBA942AF
:1033400003D90C233360002070BD01F0F0F8234A4C
:103350001468214691B9224C23681BB9304600F00D
:10336000F9FC20602946304600F0F4FC431C26D1CD
:103370000C233360304601F0DBF8E4E70B685B1B9D
:103380001AD40B2B0FD90B60CD50CC18304601F05E
:10339000CFF804F10B00231D20F00700C31A1BD047
:1033A0005A42E25070BD8C420DBF63684B68636047
:1033B000136018BF0C46E9E70C464968CAE7C41C0D
:1033C00024F00304A04205D0211A304600F0C2FCCC
:1033D0000130CDD02560D9E770BD00BFB800022014
:1033E000BC0002202DE9F0478E689E4282460C46C2
:1033F0009146984635D88A8912F4906F31D0256865
:1034000009696F1A6569022305EB450595FBF3F51C
:1034100008F101033B449D4238BF1D46530531D599
:103420002946FFF781FF064650B90C23CAF8003041
:10343000A38943F04003A3814FF0FF30BDE8F0873C
:103440003A46216901F04EF8A38923F4906343F0D2
:103450008003A381266165613E44ED1B2660A56063
:103460004646464528BF464632464946206801F052
:1034700044F8A3689B1BA36023681E4426600020B9
:10348000BDE8F0872A4601F0A3F806460028E1D1FE
:103490002169504601F04EF8C7E793682DE9F74FD0
:1034A00081460C461746002B60D04FF0000BD2F837
:1034B00000A05E4656B3A3689E4244D3A28912F48C
:1034C000906F3ED025682169A5EB0108656902234C
:1034D00005EB450595FBF3F508F1010333449D42E7
:1034E00038BF1D46530546D529464846FFF71CFF01
:1034F00098B90C23C9F80030A38943F04003A38195
:103500000023BB607B604FF0FF3031E0DAF800B0A1
:10351000DAF804600AF1080ACCE742462169019012
:1035200000F0E0FFA289019B22F4906242F0800249
:10353000A281236165614344A5EB08052360A56072
:1035400033469E4200D233461A46594620680193BC
:1035500000F0D3FFA268019BD21AA2602268134434
:103560002360BB689E1BBE60002ECFD10020786018
:1035700003B0BDE8F08F2A46484601F029F803461B
:103580000028D6D12169484600F0D4FFB1E70000F9
:103590002DE9F04F9DB0804603938B891C060D46A4
:1035A00016460FD50B696BB94021FFF7BDFE2860A9
:1035B000286128B90C23C8F800304FF0FF30C5E06F
:1035C00040236B610023099320238DF82930302399
:1035D0008DF82A304FF0010B37463C4614F8013B7A
:1035E000002B3CD1B7EB060A0BD053463246294696
:1035F0004046FFF7F7FE013000F0A380099B5344DB
:1036000009933B78002B00F09C8000234FF0FF32A1
:1036100004930793059206938DF853301A9305226D
:1036200021785048FEF7E4FF671C049BD8B9D906FF
:1036300044BF20228DF853201A0744BF2B228DF857
:10364000532022782A2A16D0079A00210A202746DA
:1036500001343B78303B092B51D9C9B111E0252BFE
:10366000C0D02746B9E73F4A801A0BFA00F018434A
:1036700004903C46D3E7039A111D12680391002A77
:1036800001DB079204E0524243F0020307920493E5
:103690003B782E2B0ED17B782A2B07F1010132D1FA
:1036A000039B1A1D1B680392002BB8BF4FF0FF331A
:1036B000023705932C4C397803222046FEF798FFF9
:1036C00038B14023001B03FA00F0049B034304932A
:1036D0000137397825488DF8281006227E1CFEF720
:1036E00087FF002835D0224BFBB9039B073323F01B
:1036F000070308330393099B4B4409936CE700FBD2
:1037000002320121A3E70023059318460A240F463D
:1037100001313A78303A092A03D9002BCAD00590F2
:10372000C8E704FB00200123F1E703AB00932A461E
:10373000104B04A94046AFF30080B0F1FF3F814633
:10374000D9D1AB895B063FF538AF09981DB0BDE80C
:10375000F08F03AB00932A46064B04A9404600F0C5
:10376000D9F9EAE7488B00084E8B0008528B000815
:1037700000000000E53300089368013B002B10B403
:10378000936009DA9469A34202DBCBB20A2B03D11E
:103790005DF8044B00F034BB1368581C10601970BE
:1037A000C8B25DF8044B7047F8B506460F4614469C
:1037B000D518AC4201D1002007E03A4614F8011BAD
:1037C0003046FFF7D9FF431CF3D1F8BD38B59368F5
:1037D0001446002513B95360184638BD00F0BEFCEE
:1037E000A560656038BD00002DE9F04F9DB00C4626
:1037F00017460393064618B183690BB9FFF7CEFC51
:103800007C4B9C4257D17468A38918075DD5236906
:10381000002B5AD00023099320238DF82930302320
:103820008DF82A304FF0010BB846454615F8013B9C
:10383000002B55D1B8EB070A0BD053463A46214628
:103840003046FFF7B1FF013000F0C480099B5344BC
:10385000099398F80030002B00F0BC8000234FF053
:10386000FF3204930793059206938DF853301A9311
:10387000052229786048FEF7BBFE05F10108049B8C
:10388000002831D1D90644BF20228DF853201A07D1
:1038900044BF2B228DF853202A782A2A2CD0079A4D
:1038A00000210A20A846013598F80030303B092B4A
:1038B0006DD971B326E0514B9C4201D1B468A3E7A6
:1038C0004F4B9C4208BFF4689EE72146304600F00B
:1038D00003FB00289ED04FF0FF301DB0BDE8F08FF5
:1038E000252BA7D0A846A0E7434A801A0BFA00F080
:1038F000184304904546BBE7039A111D12680391D3
:10390000002A01DB079204E0524243F002030792CF
:10391000049398F800302E2B10D198F801302A2B00
:1039200008F1010137D1039B1A1D1B680392002B7C
:10393000B8BF4FF0FF3308F102080593314D98F8F6
:10394000001003222846FEF753FE40B14023401BDF
:1039500003FA00F0049B0343049308F1010898F86C
:10396000001029488DF82810062208F10107FEF7FB
:103970003FFE002834D0254B03BB039B073323F0C5
:10398000070308330393099B4B4409934CE700FB5F
:103990000232012186E70023059318460A2588464E
:1039A000013198F80020303A092A03D9002BC5D0FC
:1039B0000590C3E705FB00200123F0E703AB00936C
:1039C0002246134B04A93046AFF30080B0F1FF3F0D
:1039D0008146D8D1A3895B063FF57DAF09987CE786
:1039E00003AB009322460A4B04A9304600F092F83C
:1039F000ECE700BF048B0008488B0008248B00080C
:103A0000E48A00084E8B0008528B0008000000007A
:103A1000A937000813460A46014602480068FFF726
:103A2000E3BE00BF300002202DE9F04791461F465B
:103A30008A680B69DDF820809342B8BF1346C9F845
:103A4000003091F8432006460C4612B10133C9F804
:103A500000302368990642BFD9F800300233C9F814
:103A60000030256815F0060507D104F1190AE3684E
:103A7000D9F800209B1A9D4229DB94F84330226834
:103A8000003318BF012392062ED404F143023946B5
:103A90003046C047013021D02368E568D9F80020BE
:103AA00003F00603042B08BFAD1AA36822690CBFFC
:103AB00025EAE57500259342C4BF9B1AED184FF027
:103AC00000091A344D451BD10020BDE8F0870123C1
:103AD000524639463046C047013003D14FF0FF30DF
:103AE000BDE8F0870135C2E7E1185A1C302081F8A3
:103AF0004300224494F8451082F843100233C4E78F
:103B00000123224639463046C0470130E6D009F14C
:103B10000109D7E72DE9F04317460A7E85B06E2AE2
:103B2000984606460C460C9B01F1430E00F0BC8003
:103B30001AD8632A2ED00AD8002A00F0C880582A42
:103B400000F08A8004F1420584F842202AE0642AC9
:103B500001D0692AF6D121681A6811F0800F23D0AC
:103B6000111D1960136827E0732A00F0B48008D88B
:103B70006F2A2AD0702AE5D10A6842F020020A6032
:103B800003E0752A21D0782ADCD1782284F84520F8
:103B90006E4964E01A6801F14205111D196013684D
:103BA00084F842300123A3E011F0400F02F1040138
:103BB0001960D7D0B2F90030002B03DA2D225B4216
:103BC00084F8432062490A2217E02068196810F03F
:103BD000800F03D0081D18600B6806E010F0400F3E
:103BE00001F104001860F7D00B8859496F2A14BFFF
:103BF0000A220822002084F843006568A560002D91
:103C0000C0F29C80206820F004002060002B3FD18F
:103C1000002D40F095807546082A0BD12368DA07FD
:103C200008D5236962689A42DEBF302305F8013C5B
:103C300005F1FF35AEEB05032361CDF800803B466F
:103C400003AA21463046FFF7EFFE013055D14FF071
:103C5000FF3005B0BDE8F08381F845203C4922687B
:103C6000186812F0800F00F104051D6001D0036890
:103C700002E05506FBD50388D00744BF42F020027E
:103C800022601BB9226822F0200222601022B1E7D4
:103C90007546B3FBF2F002FB1033CB5C05F8013D37
:103CA00003460028F5D1B7E708681A68496910F09B
:103CB000800F04D0101D18601368196007E010F021
:103CC000400F02F1040018601368F6D01980002339
:103CD00023617546B1E71A68111D1960156862689D
:103CE00000212846FEF784FC08B1401B6060636831
:103CF0002361002384F843309FE723692A4639462D
:103D00003046C0470130A2D023689B0707D5002565
:103D100004F11909E368039A9B1A9D4205DBE068E8
:103D2000039B9842B8BF184693E701234A46394699
:103D30003046C04701308AD00135EBE7002BA7D1D0
:103D40000B7884F8423004F1420565E76A8B00087D
:103D5000598B000838B5064C0023054608462360F9
:103D600001F098FD431C02D1236803B12B6038BDDC
:103D7000EC58042010B50C46B1F90E1000F04EFCC2
:103D80000028ABBF636DA3891B1823F48053ACBF1D
:103D90006365A38110BD002070472DE9F0411F46E7
:103DA0008B89DB0505460C46164605D50223002205
:103DB000B1F90E1000F020FBA389B4F90E1023F422
:103DC0008053A38132463B462846BDE8F04100F0CF
:103DD00071B810B50C46B1F90E1000F00DFB431C84
:103DE000A38915BF606523F4805343F48053A381F6
:103DF00018BFA38110BDB1F90E1000F0DBB80000B0
:103E0000F8B50E461446054618B183690BB9FFF79D
:103E1000C5F9214B9C422AD16C68A369A360A38990
:103E20001A072ED5236963B323692068C01A636912
:103E3000F6B29842374604DB2146284600F052F994
:103E400028BBA368013BA36023685A1C22601E7034
:103E500063690130984204D0A389DB0719D50A2E83
:103E600017D12146284600F03DF990B10FE00B4BE9
:103E70009C4201D1AC68D0E7094B9C4208BFEC687A
:103E8000CBE72146284600F027F80028CCD04FF099
:103E9000FF373846F8BD00BF048B0008248B0008AC
:103EA000E48A0008024B0A4601461868FFF7A8BFDB
:103EB0003000022038B5074C05460846114600225E
:103EC00022601A4601F0F4FC431C02D1236803B1BE
:103ED0002B6038BDEC580420324B70B51D68064687
:103EE0000C4625B1AB6913B92846FFF757F92E4B9D
:103EF0009C420FD16C68B4F90C309AB215072CD4DF
:103F0000D00611D40922326043F04003A3814FF060
:103F1000FF3070BD254B9C4201D1AC68EBE7244BD0
:103F20009C4208BFEC68E6E7510712D5616B41B1CE
:103F300004F14403994202D0304600F0FBFA00231A
:103F40006363A38923F02403A381002363602369AF
:103F50002360A38943F00803A38123694BB9A38994
:103F600003F42073B3F5007F03D02146304600F000
:103F700079FAA28912F001030CD00023A3606369CF
:103F80005B42A361236953B9B4F90C3013F080008C
:103F9000BAD170BD920758BF6369A360F2E70020F1
:103FA000F7E700BF30000220048B0008248B0008D4
:103FB000E48A000838B5064C00230546084623600D
:103FC00001F040FC431C02D1236803B12B6038BDD3
:103FD000EC5804208A892DE9F041054610070C466B
:103FE0005AD44B68002B05DC0B6C002B02DC002044
:103FF000BDE8F081E66A002EF9D0002312F4805269
:104000002F682B6033D0606DA3895A0705D563688C
:10401000C01A636B0BB1236CC01A00230246E66A18
:10402000216A2846B047431CA38906D129681D2967
:104030004BD82B4ACA40D60747D500226260D90424
:104040002269226004D5421C01D12B6803B9606546
:10405000616B2F600029CAD004F14403994202D059
:10406000284600F067FA00206063BDE8F081216A0D
:1040700001232846B047411CC6D12B68002BC3D072
:104080001D2B01D0162B01D12F60B0E7A38943F07F
:104090004003A381BDE8F0810F69002FA7D09307EB
:1040A0000E6808BF4B690F6018BF0023A6EB070816
:1040B0008B60B8F1000F9ADD43463A46216AA66A42
:1040C0002846B047002807DCA38943F04003A381BA
:1040D0004FF0FF30BDE8F0810744A8EB0008E8E7A7
:1040E0000100402038B50B6905460C46DBB118B11C
:1040F00083690BB9FFF752F80C4B9C4209D16C68ED
:10410000B4F90C307BB121462846BDE83840FFF7B2
:1041100061BF074B9C4201D1AC68F1E7054B9C4263
:1041200008BFEC68ECE7002038BD00BF048B000836
:10413000248B0008E48A0008014620B9044B054995
:104140001868FFF7CBB8044B1868FFF7CBBF00BF68
:10415000448B0008E54000083000022093682DE9F8
:10416000F74F07460C4690461BB9002003B0BDE848
:10417000F08F8B89180726D50B6923B3A389D8F84C
:10418000006013F002092DD04FF0000ADFF864B28E
:10419000D146B9F1000F1FD0D9454B46524628BF32
:1041A0005B46216AA56A3846A847002840F3898003
:1041B000D8F808308244A9EB0009181AC8F808009A
:1041C0000028E6D1D1E721463846FFF785FE0028D2
:1041D000D4D04FF0FF30C9E7D6F800A0D6F804904D
:1041E0000836D6E713F0010343D04846CA46CB460B
:1041F000BBF1000F00F0D98050B95A460A21504651
:10420000FEF7F6F9002800F0D5800130A0EB0A098E
:10421000206821696269D9454B4628BF5B468842C0
:1042200040F2CB80A5681544AB4240F3C6805146AE
:104230002A4600F062F923682B4423602146384661
:10424000FFF750FF00283CD1B9EB050940F0CF80C3
:1042500021463846FFF746FF002832D1D8F808300B
:10426000AA44ABEB050B5D1BC8F80850002DBFD16D
:104270007BE799469A46BAF1000F27D0A289A56834
:10428000910565D5AA453BD312F4906F36D02169CC
:1042900023685B1A01936369022003EB430393FBDA
:1042A000F0FB019B581C5044834538BF834653059F
:1042B0003ED559463846FFF737F8054650B90C2326
:1042C0003B60A38943F04003A38182E796E80006A0
:1042D0000836D0E7019A216900F004F9A28922F496
:1042E000906242F08002A281019B25611D44ABEBEC
:1042F00003032560C4F814B05546A360AA4500D254
:1043000055462A464946206800F0F7F8A3685B1B2B
:10431000A36023681D4425605546D8F80830A94499
:10432000AAEB050A5D1BC8F80850002DA3D11CE7B5
:104330005A46384600F04CF905460028D4D1216988
:10434000384600F0F7F8A38923F08003A381B6E78D
:1043500020682369984202D86269924515D2554572
:1043600028BF55462A46494600F0C7F8A368226888
:104370005B1B2A44A3602260002BCED12146384625
:10438000FFF7B0FE0028C8D09BE76FF0004353450D
:1043900028BF5346A56A93FBF2F3216A534338467C
:1043A0004A46A847051EB8DC8BE796E8000C0020BB
:1043B00008361DE70BF101092AE7934209DBA56ADC
:1043C000216A134638465246A847051E3FF73CAFC0
:1043D00077E71A465146019300F08FF8019BA268D7
:1043E000D21AA26022681A4422601D462CE70120DE
:1043F00034E700BF00FCFF7F38B5074C0546084690
:104400001146002222601A4601F034FA431C02D100
:10441000236803B12B6038BDEC58042070B50E46FC
:10442000B1F90E10002990B014461D4607DA00239A
:104430002B60B3891A0610D44FF480630EE001AAF2
:1044400000F068F90028F2DB029A02F47042A2F54B
:1044500000535A425A412A60EEE74023002023606D
:1044600010B070BD8B8973B59D0706460C4607D505
:1044700004F14703236023610123636102B070BD2F
:1044800001AB6A46FFF7CAFF009905463046FEF7C2
:104490004BFF48B9B4F90C309A05EFD423F003036D
:1044A00043F00203A381E3E70D4BB362A3892060CD
:1044B00043F08003A381009B6361019B20615BB19A
:1044C000B4F90E10304600F037F928B1A38923F073
:1044D000030343F00103A381A3891D43A581CDE715
:1044E0000D31000810B5431E0A44914200D110BDA1
:1044F00011F8014B03F8014FF7E7884210B501EBC3
:10450000020303D8421E99420CD110BD9842F9D241
:104510008118D21AD34200D110BD13F8014D01F811
:10452000014DF7E711F8014B02F8014FEBE7704737
:104530007047000038B50546002945D051F8043CC5
:104540000C1F002BB8BFE418FFF7F1FF1F4A1368D8
:10455000104633B9636014602846BDE83840FFF761
:10456000E7BFA3420CD921686218934204BF1A68BE
:104570005B68636004BF521822600460ECE7134676
:104580005A680AB1A242FAD919685818A0420BD148
:1045900020680144581882421960DDD110685268C1
:1045A0005A6001441960D7E702D90C232B60D3E786
:1045B000206821188A4204BF11685268626004BFF3
:1045C000091821605C60C7E738BD00BFB800022051
:1045D000F8B5074614460E4621B91146BDE8F84025
:1045E000FEF7A2BE22B9FFF7A5FF25462846F8BD73
:1045F00000F0B2F884420FD921463846FEF794FE07
:1046000005460028F2D031462246FFF76BFF3146BF
:104610003846FFF78FFFE9E73546E7E738B5074C3F
:10462000054608461146002222601A4601F02AF982
:10463000431C02D1236803B12B6038BDEC58042021
:1046400038B50C460968054609B1FFF7F9FF214660
:104650002846BDE83840FFF76DBF00002C4B1B68B3
:10466000834270B5044651D0436AABB1DB686BB18D
:104670000025636ADB685959002941D10435802D32
:10468000F7D1636A2046D968FFF754FF636A196857
:1046900011B12046FFF74EFF616911B12046FFF7C7
:1046A00049FF616A11B12046FFF744FFA16B11B1C8
:1046B0002046FFF73FFFE16B11B12046FFF73AFFBD
:1046C000216C11B12046FFF735FFE16D11B1204695
:1046D000FFF730FFA16D11B12046FFF72BFF616B93
:1046E00011B12046FFF726FFA3697BB1A36A2046DC
:1046F0009847A16C51B12046BDE87040FFF7A0BFBC
:104700000E682046FFF716FF3146B5E770BD00BFC3
:104710003000022038B5074C0023054608461146F4
:10472000236001F097F8431C02D1236803B12B608A
:1047300038BD00BFEC58042038B5064C00230546B0
:104740000846236001F08EF8431C02D1236803B1B0
:104750002B6038BDEC58042051F8040C0028A0F15F
:104760000400BCBF0B58C018704700002DE9F04F83
:104770002DED048B8DB057EC106B55EC114B00F008
:104780006FF9AE4BB0EE408AF0EE608A93F900907C
:10479000B9F1FF3F98465FD022462B462046294676
:1047A000FEF7C8FB8346002856D132463B463046CA
:1047B0003946FEF7BFFB0190E8B1002200232046F6
:1047C0002946FEF785FB002846D0012302939C4B27
:1047D00003939C4BCDF828B00022B9F1020FCDE92C
:1047E0000467CDE90645CDE9082333D002A800F0DF
:1047F00008FF48BB5EE04FF0000A4FF0000B524646
:104800005B4630463946FEF763FB4BEC19AB00289C
:1048100055D052465B4620462946FEF759FB804656
:1048200018B301230293864B0393019B0A93CDE9AE
:104830000467CDE90645CDE908ABB9F1000FD5D045
:10484000804B0022CDE908230A9B1BB100F0F4FF46
:104850000A9B03609DED088BB0EE480AF0EE680AF3
:104860000DB0BDEC048BBDE8F08F45EC104B00F0B3
:10487000C0FE0028F0D052465B4620462946FEF78F
:1048800031FB0028E8D0012302936D4B03936B4B5F
:10489000CDF8288093F90030CDE90467CDE90645CD
:1048A00013B9CDE908ABA1E767490020CDE90801BC
:1048B000022B9BD100F0C0FF21230360C4E7B0EEC0
:1048C000480AF0EE680A00F094FE0190002840F0DB
:1048D0008A8047EC106B00F08CFE002800F083808B
:1048E00045EC104B00F085FE00287CD053EC182BD3
:1048F00018EE100A1946FEF71DFB98F90090504B70
:10490000B0B101220393019B02920A93CDE904679F
:10491000CDE90645B9F1000FC3D052465B4650467B
:104920005946FEF797F9B9F1020FCDE90801C0E742
:104930000322029203930A90CDE90467CDE906456C
:10494000B9F1000F2CD1414B4FF06042CDE9082363
:10495000304652465B463946FEF7C4FA002866D018
:1049600000223B4B20462946FEF74AF804460D46F6
:1049700045EC104B00F050FE204653EC102B29461E
:10498000FEF7A6FA20B9334B4FF06042CDE9082379
:1049900098F90030022B4AD100F04EFF22238CE719
:1049A0002D4B0022CDE90823304652465B4639465E
:1049B000FEF798FA0028EBD00022254B2046294626
:1049C000FEF71EF804460D4645EC104B00F024FEA1
:1049D000204653EC102B2946FEF77AFA0028D7D14F
:1049E0000022194BD2E70022002351EC180BFEF7EE
:1049F0006FFA00283FF430AF47EC106B00F0F9FD80
:104A000000283FF429AF45EC104B00F0F2FD0028E0
:104A10003FF422AF04230293094B039300230A932C
:104A2000CDE90467CDE906458DED089BB0E702A806
:104A300000F0E7FD00287FF407AFADE79400022007
:104A40007B8B00080000F03F0000F0FFFFFFEF4706
:104A50000000E03FFFFFEFC70000F07F0000000014
:104A60002DE9F04F91B08DED001B9DE8040257EC4D
:104A7000106B29F0004858EA020310EE10AA3D46D8
:104A800000F0BD84784B27F000449C4209DC03D140
:104A90003EB9A0450DDC01E0984502DC98450ED1F9
:104AA0006AB104F1404404F5801454EA0A0300F0AA
:104AB000A6846E4811B0BDE8F04F00F0A5BD002DF2
:104AC00053DA6B4B98454DDCA3F1547398454CDD9C
:104AD0004FEA2853A3F2FF33142B26DDC3F134032E
:104AE00022FA03F101FA03F39A423ED101F00101E7
:104AF000C1F1020B002A5BD15B4B984524D104F134
:104B0000404303F5801353EA0A0300F07884594BBD
:104B10009C422DDDB9F1000F80F275840020002148
:104B200041EC100B11B0BDE8F08F002A3ED1C3F16B
:104B3000140348FA03F101FA03F3984540F06B843B
:104B400001F00101C1F1020B4B4B984518D1B9F1AD
:104B5000000F80F25C84484932463B460020FEF755
:104B600079F8DDE74FF0020BC4E74FF0000BC1E727
:104B7000B9F1000FD2DA9DE8090003F10041CFE757
:104B8000B9F1804F06D132463B4610461946FDF733
:104B900037FFC5E7394B99450AD1002D08DB47ECB3
:104BA000106B11B0BDE8F04F00F06CBC4FF0000B83
:104BB00047EC106B00F016FD51EC100BBAF1000F32
:104BC00027D124B12C4B25F040429A4221D1B9F192
:104BD000000F05DA02460B4600202749FEF73AF897
:104BE000002D9DDA04F1404404F5801454EA0B03CF
:104BF00008D102460B4610461946FDF74DFD024608
:104C00000B46ACE7BBF1010F8AD101F10043194615
:104C100086E7ED0F6B1E0D935BEA030302D132466C
:104C20003B46E8E7164B984540F3FE8003F10473DA
:104C300098450ADD0F4B9C420DDCB9F1000FBFF621
:104C40006DAF07A3D3E900239FE70E4B9C42F4DD31
:104C5000094B9C4218DDB9F1000FF2DC5EE700BFA2
:104C60009C7500883CE4377E0000F07F4D8B000887
:104C7000FFFF3F43FFFFEF3F0000F03F0000E03F3A
:104C80000000E041FEFFEF3F0022634BFDF704FD13
:104C900055A3D3E9002304460D46FDF7B1FE54A306
:104CA000D3E9002306460F4620462946FDF7A8FE15
:104CB0000022CDE90201594B20462946FDF7A0FE0E
:104CC00002460B464CA1D1E90001FDF7E5FC224666
:104CD0002B46FDF795FE02460B4600205049FDF796
:104CE000DBFC22462B468046894620462946FDF7B6
:104CF00087FE02460B4640464946FDF781FE40A32B
:104D0000D3E90023FDF77CFE02460B46DDE90201F4
:104D1000FDF7C2FC02460B4604460D4630463946B6
:104D2000FDF7BCFC0020CDE9040132463B46FDF70F
:104D3000B3FC02460B4620462946FDF7ADFC0D9A12
:104D40000BF1FF33134306460F4640F0EB819FED16
:104D50002E7BDDE90045002422462B46DDE90001DB
:104D60008DED027BFDF798FCDDE90423FDF748FE9D
:104D7000DDE900238046894630463946FDF740FE8E
:104D800002460B4640464946FDF788FC22462B4624
:104D900080468946DDE90401FDF732FE0B460446F4
:104DA0000D46024649464046CDE90045FDF776FCF2
:104DB0001C4B994206460F468B4640F3F78201F1A1
:104DC0003F4303F5E003034300F0EA8110A3D3E976
:104DD0000023DDE90201FDF713FE0DA3D3E9002353
:104DE000D5E600BFAFF30080000000604715F73F35
:104DF00044DF5DF80BAE543E555555555555D53FDE
:104E0000FE822B654715F73F000000000000F0BF51
:104E10009C7500883CE4377E0000F03F0000D03FE6
:104E20000000E03FFFFF8F40B4F5801F4FF000020D
:104E300005DAD34BFDF7E4FD6FF034020C46231581
:104E4000A3F2FF3313440793CE4BC4F3130444F08F
:104E50007F559C4245F4401508DDCB4B9C4240F306
:104E60005E81079B01330793A5F580154FF0000A7B
:104E70004FEACA030C930C9AC44B134493ED007B86
:104E8000294653EC172B8DED0A7BCDE90801FDF780
:104E900003FCDDE90A2306460F46DDE90801FDF7BC
:104EA000FDFB02460B460020B949FDF7D3FECDE9D4
:104EB0000E0102460B4630463946FDF7A1FDCDE90D
:104EC0000401DDE90434CDE9023400230293DDE975
:104ED00002896D1045F0005505F50025002205EB0F
:104EE0008A434046494614461D46FDF789FD024661
:104EF0000B4630463946FDF7CFFBDDE90A2306466F
:104F00000F4620462946FDF7C7FB02460B46DDE962
:104F10000801FDF7C1FB42464B46FDF771FD024615
:104F20000B4630463946FDF7B7FBDDE90E23FDF7AA
:104F300067FDDDE90423CDE9080110461946FDF7B8
:104F40005FFD7BA3D3E9002304460D46FDF758FD22
:104F500079A3D3E90023FDF7A1FB22462B46FDF7F9
:104F60004FFD77A3D3E90023FDF798FB22462B469C
:104F7000FDF746FD74A3D3E90023FDF78FFB22461E
:104F80002B46FDF73DFD72A3D3E90023FDF786FB19
:104F900022462B46FDF734FD6FA3D3E90023FDF72E
:104FA0007DFB224606460F462B4620462946FDF746
:104FB00027FD02460B4630463946FDF721FD4246A5
:104FC00004460D464B46DDE90401FDF767FBDDE9CC
:104FD0000823FDF715FD22462B46FDF75FFB4246F1
:104FE00006460F464B4640464946FDF709FD00225E
:104FF000684BCDE90A01FDF751FB32463B46FDF710
:105000004DFB02980D46044602460B464046494673
:10501000FDF7F6FC0022804689465E4B2046294675
:10502000FDF73AFBDDE90A23FDF736FB02460B46A6
:1050300030463946FDF730FBDDE90423FDF7E0FC9F
:10504000224606460F462B46DDE90801FDF7D8FC4F
:1050500002460B4630463946FDF720FB06460F4612
:1050600002460B4640464946FDF718FB02983CA312
:10507000D3E9002304460D46FDF7C2FC4246CDE9C4
:1050800008014B4620462946FDF706FB02460B4623
:1050900030463946FDF700FB33A3D3E90023FDF783
:1050A000AFFC33A3D3E9002306460F46204629462A
:1050B000FDF7A6FC02460B4630463946FDF7EEFAF0
:1050C0000C9A354B1344D3E90023FDF7E7FA044665
:1050D00007980D46FDF72EFC0C9A304B1344D3E98C
:1050E000008906460F4622462B46DDE90801FDF7FA
:1050F000D5FA42464B46FDF7D1FA32463B46FDF71C
:10510000CDFA029832463B46CDE90401FDF7C4FAD8
:1051100042464B46FDF7C0FADDE9082307E64FF0AB
:10512000010AA5E69FED147B13E600BFAFF30080F4
:10513000EF4E454A287ECA3F65DBC9934A86CD3F7C
:1051400001411DA96074D13F4D268F515555D53F62
:10515000FFAB6FDBB66DDB3F033333333333E33FFA
:10516000000000E009C7EE3FFD033ADC09C7EE3F4F
:10517000F5015B14E02F3EBE000000000000F03F90
:10518000000040438E98030079B60B00808B000826
:105190000000F03F00000840A08B0008908B000842
:1051A000B6A3D3E9002340464946FDF777FA2246E5
:1051B000CDE904012B4630463946FDF76DFA02462B
:1051C0000B46DDE90401FDF7ABFE00287FF4FEADE0
:1051D000A54A2BF00043934240F30C811B154FF47A
:1051E000801AA3F2FE334AFA03F35B44C3F30A5274
:1051F0009E4EA2F2FF321641C3F3130A002023EAA7
:105200000601C2F114024AF4801A4AFA02FABBF10A
:10521000000F02460B4620462946B8BFCAF1000AD5
:10522000FDF73AFACDE9000142464B46DDE90001BF
:10523000FDF734FA00207AA3D3E9002304460D4693
:10524000FDF7DEFBDDE9002306460F462046294632
:10525000FDF722FA02460B4640464946FDF71CFA86
:1052600071A3D3E90023FDF7CBFB71A3D3E900239E
:105270008046894620462946FDF7C2FB02460B467A
:1052800040464946FDF70AFA04460D4602460B46DB
:1052900030463946FDF702FA32463B46804689469B
:1052A000FDF7FAF902460B4620462946FDF7F4F9C8
:1052B000424606460F464B4640464946FDF7A0FB90
:1052C0005DA3D3E9002304460D46FDF799FB5CA3DB
:1052D000D3E90023FDF7E0F922462B46FDF790FBCA
:1052E00059A3D3E90023FDF7D9F922462B46FDF750
:1052F00087FB57A3D3E90023FDF7CEF922462B46BF
:10530000FDF77EFB54A3D3E90023FDF7C7F922463E
:105310002B46FDF775FB02460B4640464946FDF716
:10532000BBF904460D4602460B4640464946FDF78A
:1053300067FB0022CDE900014FF08043204629465B
:10534000FDF7AAF902460B46DDE90001FDF782FCF4
:10535000324604460D463B4640464946FDF750FB63
:1053600032463B46FDF79AF902460B46204629464F
:10537000FDF792F942464B46FDF78EF902460B4681
:1053800000203B49FDF788F901EB0A54B4F5801F72
:1053900002460B4631DA504643EC102B00F0C4F9BC
:1053A00051EC100BDDE90223FFF7F1BB314B21F08B
:1053B00000469E427FF70CAF2F4B0B4403430BD0AC
:1053C00027A3D3E90023DDE90201FDF719FB24A39C
:1053D000D3E90023FFF7DBBB22462B46FDF75CF940
:1053E00002460B4640464946FDF786FD00283FF43D
:1053F000EFAEE5E74FF0000A16E72146D2E70020BE
:105400001B49FFF78DBBDDE90001FFF789BB304683
:105410003946FFF785BB9346FFF796BBAFF3008095
:1054200000000000432EE63FEF39FAFE422EE63F31
:10543000396CA80C615C20BED0A4BE726937663E90
:10544000F16BD2C541BDBB3E2CDE25AF6A56113F84
:1054500093BDBE166CC1663F3E5555555555C53F6B
:1054600059F3F8C21F6EA5010000E03FFFFF0F00D7
:105470000000F03FFFCB904000346F3FFE822B6571
:105480004715973C2DE9F04155EC104B544EAE4377
:1054900010EE100A2B462A46214613D110EE102A90
:1054A0002B4610EE100A2946FDF7AAFA02460B46D3
:1054B00020462946FDF7F2F804460D4645EC104B10
:1054C000BDE8F081002D10DC25F000463043F5D01A
:1054D0005DB110EE102A2B4620462946FDF7DCF878
:1054E00002460B46FDF7B6FBE6E71B150CD1002A7A
:1054F0006DD00020D6026ED5441E1B1BC0F12004C7
:1055000021FA04F422438140A3F2FF33C2F31302D1
:10551000DD0742F4801242BF520002EBD172490013
:105520005810002502EBD1731A44490016232C466B
:105530004FF40016A7199742DEBFD21BBC19AD1954
:105540005200013B02EBD1724FEA56064FEA41018D
:10555000F0D14FF0200E9C464FF00046A24206EBE1
:105560000C0702DC12D18F4210D8002F07EB060C7B
:1055700034DABCF1000F31DB04F10108121B8F4259
:1055800088BF02F1FF32C91B3344444602EBD17796
:10559000BEF1010E3A444FEA41014FEA5606DDD111
:1055A0000A4306D05C1C13BF01330135734623F058
:1055B00001036A105B08E90702F17F5202F500124D
:1055C00048BF43F0004302EB00551C4676E7CA0A89
:1055D000153B49058BE7520001308BE7A046CDE72C
:1055E0000000F07F53EC102B23F0004343EC102B12
:1055F000704710EE903A43F0004000F58010C00F65
:1056000070470020704700009FED010B704700BFFE
:10561000000000000000F87FF7B551EC100BC1F35B
:105620000A54A4F2FF36132E10EE107A0B460246EF
:105630004FEAD17558DC002E2BDA21F000420243EC
:1056400023D0C1F31302024351421143090B5B0CF7
:1056500001F400215B0441EA0307314B03EBC5036E
:105660003946D3E9006710EE100A32463B46FDF793
:1056700015F8CDE900013B463246DDE90001FDF7B2
:105680000BF821F0004343EAC57141EC100B03B065
:10569000F0BD244C344101EA04070743F5D061080A
:1056A00003EA010002430BD023EA01014FF48023F7
:1056B000132E43FA06F30CBF4FF0004200220B43B7
:1056C0001946174B03EBC505D5E9004510462B4697
:1056D0002246FCF7E3FFCDE9000122462B46DDE937
:1056E0000001FCF7D9FFD0E7332E08DDB6F5806F57
:1056F000CBD110EE102A0B46FCF7D0FFC5E7A4F281
:1057000013464FF0FF34F4402042BED061080F42F0
:105710001FBF4FF0804227EA010132410A43CFE721
:10572000B08B0008FFFF0F0070B555EC104BC5F3B0
:105730000A5206462B46B2B925F0004323433CD01B
:105740000022334B294610EE100AFDF759F9314A71
:10575000964204460D460B4613DA29A3D3E90023EB
:10576000FDF74EF90AE040F2FF718A420CD110EECB
:10577000102A2B4620462946FCF790FF04460D468A
:105780001BE0C1F30A52363A324440F2FE718A42BB
:105790000BDD45EC114B9FED1C0B00F03FF81AA3FD
:1057A000D3E9002351EC100BDAE7002A08DD23F0DF
:1057B000FF4323F4E00343EA025545EC104B70BD70
:1057C00012F1350F0DDA4CF250339E4245EC114B7D
:1057D000E1DC9FED0B0B00F021F809A3D3E90023D6
:1057E000E0E723F0FF43363223F4E00343EA0255B7
:1057F000204629460022084BB2E700BFAFF30080E5
:1058000059F3F8C21F6EA5019C7500883CE4377EF1
:1058100000005043B03CFFFF0000903C53EC102BC5
:1058200011EE900A23F0004100F0004041EA00032D
:1058300043EC102B70470000014B1868704700BF05
:1058400030000220024B58221A604FF0FF307047A0
:10585000EC580420024B58221A604FF0FF3070477A
:10586000EC580420024B58221A600020704700BFF9
:10587000EC580420024B58221A604FF0FF3070475A
:10588000EC580420024B58221A604FF0FF3070474A
:10589000EC580420044B1968024609B90349196001
:1058A000186802441A607047C0000220F0580420B3
:1058B000024B58221A604FF0FF307047EC5804201A
:1058C00000000000F8B500BFF8BC08BC9E46704759
:0C58D000F8B500BFF8BC08BC9E4670474D
:1058E0000000000000000000010203040607080990
:1058F000000000000102030402100000000000008C
:105900000000000000000000000000000000000097
:105910000000000000000000000002100000000075
:105920000000000000000000000000000000000077
:105930000000000000000000000000000210000055
:105940000000000000000000000000000000000057
:105950000000000000000000000000000000021035
:105960000000000000000000000000000000000037
:105970000000000000000000000000000000000027
:105980000210000000000000000000000000000005
:105990000000000000000000000000000000000007
:1059A00000000210000000000000000000000000E5
:1059B00000000000000000000000000000000000E7
:1059C00000000000021000000000000000000000C5
:1059D00000000000000000000000000000000000C7
:1059E00000000000000002100000000000000000A5
:1059F00000000000000000000000000000000000A7
:105A00000000000000000000021000000000000084
:105A10000000000000000000000000000000000086
:105A20000000000000000000000002100000000064
:105A30000000000000000000000000000000000066
:105A40000000000000000000000000000210000044
:105A50000000000000000000000000000000000046
:105A60000000000000000000000000000000021024
:105A70000000000000000000000000000000000026
:105A80000000000000000000000000000000000016
:105A900002100000000000000000000000000000F4
:105AA00000000000000000000000000000000000F6
:105AB00000000210000000000000000000000000D4
:105AC00000000000000000000000000000000000D6
:105AD00000000000021000000000000000000000B4
